:020000040800F2
:10000000F8050020D5000008851B00082D1B0008FE
:1000100000000000000000000000000000000000E0
:10002000000000000000000000000000031C0008A9
:100030000000000000000000011C0008051C000872
:100040000501000805010008050100080501000878
:100050000501000805010008050100080501000868
:100060000000000005010008290300080501000840
:100070000501000805010008000000000501000856
:100080000000000000000000000000000000000070
:100090000501000800000000000000000501000844
:1000A0000000000005010008000000000000000042
:1000B0007D2300080501000800000000000000008A
:1000C0000348854600F0ACF8004800474924000882
:1000D000F80500200C4880F308880C480168090ED8
:1000E0000B4A914205D10B480B4901600B480C4962
:1000F00001600C4880470C480047FEE7FEE7FEE73A
:10010000FEE7FEE7FEE70000F8050020040000001F
:100110001F000000341002400100000000000140F8
:10012000000000009D1C0008C100000830B50B460F
:10013000014600202022012409E00D46D5409D42C1
:1001400005D31D469540491B254695404019154647
:10015000521E002DF1DC30BDF0B51FB40646002064
:1001600082B005464024019100901BE0019922468F
:100170000F46304600F042F8049A059B801A9941D8
:1001800010D310461946224600F028F8361A8F413F
:100190000197224601200021009F00F01FF8381827
:1001A0004D4100902046641E0028DFDC019B009832
:1001B0002946324607B0F0BDD2B201E00270401CC1
:1001C000491EFBD270470022F6E710B513460A46D7
:1001D00004461946FFF7F0FF204610BD10B5202A4F
:1001E00004DB0146203A9140002010BD91402023BD
:1001F0009C1A0346E3401943904010BD10B5202AD5
:1002000004DB0846203AD040002110BD0B46D34005
:10021000D0402024A21A91400843194610BD000086
:10022000064C0125064E05E0E36807CC2B430C3C49
:1002300098471034B442F7D3FFF746FF98240008DC
:10024000B824000810B500F097F80446204610BD09
:1002500010B5FFF7F7FF002801D0012000E00020D3
:100260000446024800F042F8204610BD2D0100204F
:1002700010B5144814490860E1204002486000218C
:1002800011488160C160016181610C21416101F00F
:10029000A9FA002801D000BFFEE700200B49088022
:1002A000002211460A2000F07BFB0A2000F06CFBC4
:1002B000002202211C2000F073FB1C2000F064FBD4
:1002C00010BD0000004400401C000020120000206F
:1002D00010B50446002C00D110BD02A002F066F853
:1002E00000BFF9E761616161610A000010B5044671
:1002F00000200B4908700B48006800681021084373
:1003000008490968086008200649096808620A2047
:1003100000F0D4F9C8222146024801F005FB10BDC7
:10032000110000201C00002010B5024800F09FF8CA
:1003300010BD00009C00002010B501200949087084
:100340000948048B09480068406809490880084644
:100350000088201A0749088008460088FFF7B8FF80
:1003600010BD0000110000205C0000209C00002057
:10037000140000201200002001480078704700009F
:100380001100002030B51C25446C2C400125A540EF
:10039000046C6560046863608468102C04D1046890
:1003A000A2600468E16003E00468A1600468E260A0
:1003B00030BD7047014600222520405C022808D04D
:1003C0000420C86300BF00232420435400BF012041
:1003D0007047086800680E2398430B681860086827
:1003E0000068400840000B6818601C23486C1840E7
:1003F00001238340086C436001232520435400BF40
:1004000000232420435400BF1046E1E770B50446A2
:1004100000252520005D022803D00420E06301258B
:1004200020E0206800680E21884321680860206869
:10043000006840084000216808601C21606C08408A
:1004400001218140206C416001212520015500BF20
:1004500000212420015500BFA06B002802D02046B7
:10046000A16B8847284670BD0146C86B704770B5C0
:100470000446206C0568206806681C20616C0140F9
:1004800004208840284000281DD004203040002847
:1004900019D02068006820210840002805D1206874
:1004A000006804218843216808601C21606C0840B2
:1004B00004218140206C4160206B00285AD02046E6
:1004C000216B884756E01C20616C01400220884067
:1004D0002840002825D002203040002821D0206864
:1004E000006820210840002808D1206800680A21FF
:1004F0008843216808600121252001551C21606C7A
:10050000084002218140206C416000BF002124206E
:10051000015500BFE06A00282CD02046E16A8847D8
:1005200028E01C20616C01400820884028400028F9
:1005300020D00820304000281CD0206800680E2100
:100540008843216808601C21606C084001218140BB
:10055000206C41600120E06301212520015500BF8E
:1005600000212420015500BF606B002802D02046E6
:10057000616B884770BD000070B50446002C01D146
:10058000012070BD244A2168881A1421FFF7CEFD8E
:10059000800060642048083820640221252001552D
:1005A000206805681D480540E168A0680843216986
:1005B000084361690843A1690843E1690843216A66
:1005C000084305432068056001218903A06888422B
:1005D00017D011487830806A1C22616C11400F22BC
:1005E0008A4090430C49783188621C22616C11402A
:1005F0006068884008497831896A0843064978313B
:1006000088620020E063012125200155002124207B
:1006100001550020B5E70000080002400F80FFFFF1
:10062000F8B504460D4616461F460020009000BF50
:100630002420005D012801D10220F8BD01212420E1
:10064000015500BF2520005D01282DD10221252064
:1006500001550020E06320680068400840002168E0
:1006600008603B46324629462046FFF78BFE206B4A
:10067000002806D0206800680E2108432168086021
:100680000BE0206800680421884321680860206826
:1006900000680A2108432168086020680068012179
:1006A00008432168086006E000BF002124200155AE
:1006B00000BF022000900098BFE7000070B504461C
:1006C00000F000F906462546681C002802D00548BF
:1006D00000782D1800BF00F0F5F8801BA842FAD36F
:1006E00070BD00000800002070B503460022002401
:1006F0000020D0E0012696400D6835402C46002CA5
:1007000077D04D68012D08D04D68022D05D04D6879
:10071000112D02D04D68122D18D19868560003256E
:10072000B5400646AE4330465600CD68B540284336
:1007300098605868012595400646AE43304610261D
:100740004D6835402D09954028435860D8685600BB
:100750000325B5400646AE43304656008D68B54089
:100760002843D8604D68022D02D04D68122D15D156
:10077000D508AE001D462035A8595507EE0E0F25A9
:10078000B5400646AE4330465607F60E0D69B540F5
:100790002843D508AD001E46203670511868560013
:1007A0000325B5400646AE4330460D79AD07AD0F83
:1007B0005600B54028431860012636074D6835407D
:1007C000B54267D1374D6D6B01263543354E7563A4
:1007D000354D9608B600A85995072E0F0F25B54040
:1007E0000646AE43304605252D07AB4202D1002513
:1007F0000BE04FE02D4DAB4201D1012505E02C4D22
:10080000AB4201D1022500E006259607360FB54020
:100810002843254D9608B600A851264D2868054660
:10082000A5432846012636044D683540B54202D11D
:100830000546254328461F4D286068680546A543A0
:100840002846012676044D683540B54202D105465A
:1008500025432846174D6860A8680546A5432846E5
:10086000012636054D683540B54202D1054625437F
:100870002846104DA860E8680546A543284601268D
:1008800076054D683540B54202D1054625432846D8
:10089000084DE860521C0D68D540002D00D029E7B6
:1008A00070BD00000010024008000140000400502C
:1008B0000008005000040140002A01D0816100E0DE
:1008C0008162704701480068704700000000002006
:1008D00003480068034909784018014908607047D7
:1008E000000000200800002010B50024084800681F
:1008F0004021084306490860002000F00BF800285A
:1009000001D0012401E000F02FF8204610BD0000C6
:100910000020024070B50446104801787D20C000D8
:10092000FFF704FC064631460D480068FFF7FEFB62
:10093000054600F0FBFD002801D0012070BD042C0D
:1009400007D200222146501E00F02AF80548046014
:1009500001E00120F2E70020F0E70000080000209D
:100960000C000020040000200648406B01210843D1
:10097000044948630846806B0904084301498863B9
:10098000704700000010024000BFC206D20E0121D5
:100990009140024A116000BF7047000000E100E092
:1009A00070B504460D4616462946204601F0ECF87F
:1009B00070BD0000F8B504462021206808402028BA
:1009C0007CD120680840202800D100BF002779484A
:1009D000806B012109070840002805D17548806B0C
:1009E000084374498863012773480068FF21013177
:1009F0000840002816D17048006808436E49086016
:100A0000FFF760FF064606E0FFF75CFF801B6428E7
:100A100001D90320F8BD68480068FF210131084072
:100A20000028F1D063480568032109050D4060687E
:100A30000840A8420DD0091160680840884208D1DA
:100A40005C480068012149040840884201D1012026
:100A5000E0E7584840300069032109040840054692
:100A6000002D3DD060680840A84239D02021206880
:100A70000840202834D14F48403000690321090440
:100A8000884305464B48403000690121C9040843AA
:100A9000484940310861084600690121C90488437A
:100AA0004449403108610846056180152840891590
:100AB000884215D1FFF706FF064608E039E0FFF748
:100AC00001FF801B3D49884201D90320A2E7394834
:100AD00040300069012149020840400A0028EED058
:100AE00000BF00BF032109046068084088420AD1A2
:100AF00030480068090188430322120561681140EB
:100B000008432C49086000BF2A484030006903228E
:100B1000120461681140084326494031086100BF52
:100B2000012F05D12348806B8905884321498863BB
:100B300000BF022120680840022809D11D4840302A
:100B4000C0680C218843A16808431A494031C86035
:100B500004212068084004280AD116484030C068A3
:100B6000032189028843E168084312494031C86083
:100B700008212068084008280AD10E484030C06883
:100B8000032109038843216908430A494031C860A9
:100B900080212068084080280AD106484030C0687B
:100BA0000321890488436169084302494031C860D0
:100BB00000202FE700100240007000408813000062
:100BC000F8B504460D46002C01D10120F8BD794846
:100BD0000068C007C00FA8420ED2764800684008DF
:100BE000400028437349086008460068C007C00FEA
:100BF000A84201D00120E9E702212068084002282C
:100C000007D16D48C068F0218843A16808436A494C
:100C1000C8602078C007C00F00284CD06068022848
:100C200009D165480068012149040840400C0028AA
:100C300024D10120CAE76068032809D15E48006812
:100C4000012149060840400E002817D10120BDE7C8
:100C50006068012808D158480068042108408008CD
:100C600000280BD10120B1E7534800680121490257
:100C70000840400A002801D10120A7E74E48C0687B
:100C800080088000616808434B49C860FFF71AFE7E
:100C90000646606802280FD107E0FFF713FE801BAD
:100CA0004649884201D9032090E74348C0680C2197
:100CB00008400828F1D134E0606803280FD107E02C
:100CC000FFF700FE801B3D49884201D903207DE7E4
:100CD0003948C0680C2108400C28F1D121E0606837
:100CE00001280FD107E0FFF7EDFD801B3349884253
:100CF00001D903206AE73048C0680C210840042865
:100D0000F1D10EE007E0FFF7DDFD801B2B498842A3
:100D100001D903205AE72848C0680C210840002860
:100D2000F1D124480068C007C00FA8420ED921485D
:100D300000684008400028431E49086008460068D3
:100D4000C007C00FA84201D001203FE7042120685E
:100D50000840042808D11848C068072109028843C0
:100D6000E16808431449C860082120680840082841
:100D700009D11148C0680721C90288432169C90007
:100D800008430D49C86000F049F80B49C968F022D2
:100D9000114009090A4A515CC8400A49086000200C
:100DA000FFF7B8FD0746002F01D038460EE70020B8
:100DB0000CE70000002002400010024088130000F1
:100DC000742400080C0000200148006870470000EF
:100DD0000C00002000B5FFF7F7FF0549C96807229E
:100DE00012021140090A034A515CC84000BD0000CC
:100DF000001002408424000800B5FFF7E5FF054914
:100E0000C9680722D2021140C90A034A515CC8408E
:100E100000BD00000010024084240008FEB52E48EA
:100E2000C7680C203840002845D0042804D0082882
:100E30000CD00C283ED10BE0274800681021084058
:100E4000002801D0254C00E0254C41E0254C3FE036
:100E50000F2080043840800C23490E5C032080055D
:100E60003840800D401C01901B48C06801210904D6
:100E70000840002807D01B49714308460199FFF735
:100E800055F9054614E01448006810210840002870
:100E900007D01249714308460199FFF747F9054603
:100EA00006E00F49714308460199FFF73FF90546EF
:100EB0002C460DE000BF0848406807214903084060
:100EC000400B00900098401C01218140CC0300BFE2
:100ED00000BF2046FEBD00000010024000093D009A
:100EE0000024F40000127A008C240008FEB50446A9
:100EF000002C01D10120FEBDFA48C7680C210F402B
:100F0000C06801210904084001902078C007C00F83
:100F1000002872D0082F04D00C2F0FD101988842DE
:100F20000CD1F0480068012149040840400C002819
:100F300063D06068002860D10120DCE700BF012198
:100F400009046068884205D1E64800680843E5491D
:100F5000086027E005210904606888420ED1E14855
:100F60000068012189040843DE49086008460068DA
:100F7000012109040843DB49086013E0D9480068EF
:100F8000012109048843D749086008460068012107
:100F900009040840009000BFD248006889008843D7
:100FA000D049086000BF6068002813D0FFF78AFCB2
:100FB000054606E0FFF786FC401B642801D90320A4
:100FC00099E7C8480068012149040840400C0028FE
:100FD000F0D012E0FFF776FC054606E0FFF772FC62
:100FE000401B642801D9032085E7BE480068012121
:100FF00049040840400C0028F0D102212068084034
:1010000002286BD1E66820203040002809D0B5487E
:10101000006820210843B3490860202130468843F6
:101020000646042F04D00C2F33D10198002830D16C
:10103000AC480068042108408008002803D0002E36
:1010400001D1012057E7A74840681F2109028843C2
:10105000216909020843A34948600846006809213C
:10106000884330439F490860FFF7D8FE9D49C9680F
:10107000F022114009099C4A515CC8409B49086014
:101080000020FFF747FC0290029800283FD002980A
:1010900031E7002E23D0934800680921884330436C
:1010A00090490860FFF70EFC054606E0FFF70AFCD2
:1010B000401B022801D903201DE78A48006804214B
:1010C000084080080028F1D0864840681F210902A6
:1010D00088432169090208438249486017E0814832
:1010E0000068400840007F490860FFF7EBFB0546B9
:1010F00006E0FFF7E7FB401B022801D90320FAE6D0
:10110000784800680421084080080028F1D11021A7
:1011100020680840102867D1002F36D17148006838
:1011200049010840400A002804D0A069002801D1E4
:101130000120E0E66B484068072149038843216AA3
:10114000084368494860084640680002000A217F59
:101150000906084363494860206A400B401C01218E
:101160008140C8035F49C968F022114009095E4AFD
:10117000515CC8405D4908600020FFF7CBFB02903E
:10118000029800284BD00298B5E6A06900282CD020
:1011900054480068FF210131084352490860FFF7B5
:1011A00091FB054606E0FFF78DFB401B022801D9A5
:1011B0000320A0E64B480068012149020840400A8C
:1011C0000028F0D047484068072149038843216A36
:1011D000084344494860084640680002000A217FED
:1011E000090608433F49486019E03E480068FF216E
:1011F000013188433B490860FFF764FB054606E080
:10120000FFF760FB401B022801D9032073E6354835
:101210000068012149020840400A0028F0D1082155
:1012200020680840082839D1606900281BD02D4863
:1012300040300069012108432A4940310861FFF725
:1012400041FB054606E0FFF73DFB401B022801D9A4
:10125000032050E62348403000690221084040083E
:101260000028F0D01AE01F484030006940084000D4
:101270001C4940310861FFF725FB054606E0FFF7F2
:1012800021FB401B022801D9032034E615484030D9
:1012900000690221084040080028F0D1042120689C
:1012A0000840042879D1002000900E48806B890600
:1012B0000840002806D10B48806B08430949886321
:1012C000012000900A480068FF21013108400028F1
:1012D0001ED107480068084305490860FFF7F2FA85
:1012E00005460EE000100240742400080C000020A7
:1012F00000700040FFF7E6FA401B642801D9032084
:10130000F9E587480068FF21013108400028F1D045
:1013100000BFFF210131A068884205D181480069E2
:1013200008438049086130E0A06800280DD17D485D
:101330000069FF21013188437A4908610846006944
:1013400009158843774908611FE005210902A06853
:1013500088420DD17348006901218902084371490F
:10136000086108460069891508436E4908610CE068
:101370006C480069FF21013188436A4908610846C9
:101380000069091588436749086100BFA068002803
:1013900015D0FFF797FA054608E031E0FFF792FA1B
:1013A000401B6149884201D90320A4E55D480069DA
:1013B000012149020840400A0028EFD013E0FFF75E
:1013C00081FA054607E0FFF77DFA401B564988423F
:1013D00001D903208FE553480069012149020840E3
:1013E000400A0028EFD10098012808D14D48403824
:1013F000806B0121090788434A494039886300BF4F
:10140000606A00284CD00C2F69D0606A022848D14D
:101410004448403800680121090688434149403961
:101420000860FFF74FFA054606E0FFF74BFA401B4E
:10143000022801D903205EE53A48403800680121BE
:1014400049060840400E0028EFD1E16AA06A08432F
:10145000216B084333494039C968FD221204914386
:10146000084330494039C860084600680121090630
:1014700008432C4940390860FFF724FA054606E086
:10148000FFF720FA401B022801D9032033E5254845
:1014900040380068012149060840400E0028EFD07E
:1014A0003CE02048403800680121090688431D4976
:1014B00040390860FFF706FA054606E0FFF702FA32
:1014C000401B022801D9032015E516484038006862
:1014D000012149060840400E0028EFD11EE0606A55
:1014E000012800D107E50F484038C068019001216C
:1014F000090401980840A16A88420DD10F2189048E
:1015000001980840E16A884206D1032189050198C3
:101510000840216B884201D00120ECE40020EAE47D
:1015200000700040401002408813000070B504466F
:101530002546681E0949884201D901200CE0681E31
:10154000074948610321081F00F01EFB00200449E1
:10155000886107200861002070BD0000FFFFFF00C8
:1015600000E000E0704770B50446656FA66F206824
:1015700080688021084080281AD1212D18D1206848
:101580008068884321688860A06E00280DD0A06E16
:10159000FEF710FF002808D0A06EFEF765FF202898
:1015A00003D11020E067032070BD204600F0DDFC71
:1015B000206880684021084040281AD1222E18D186
:1015C00020688068884321688860E06E00280DD01C
:1015D000E06EFEF7EFFE002808D0E06EFEF744FF55
:1015E000202803D11020E0670320DDE7204600F02B
:1015F0009AFC0020D8E70000064A0168914208D111
:10160000C16F082901D100BF03E0C16F102900D1CB
:1016100000BF704700440040FEB504462068C5691D
:1016200020680668206887682807000F01900198E5
:1016300000280ED12020284000280AD02020304049
:10164000002806D0206E002802D02046216E884750
:10165000FEBD019800287DD0F807C00F002804D1F6
:10166000FF20213030400028F5D0E807C00F0028C7
:101670000BD0FF2001303040002806D00120216827
:101680000862E06F01210843E0670220284000283B
:101690000AD0F807C00F002806D00220216808628F
:1016A000E06F04210843E0670420284000280AD0A6
:1016B000F807C00F002806D0042021680862E06FF8
:1016C00002210843E0670820284000280ED020208F
:1016D0003040002803D1F807C00F002806D00820AA
:1016E00021680862E06F08210843E067E06F002886
:1016F00046D020202840002809D020203040002853
:1017000005D0206E002802D02046216E8847E06F69
:1017100000902068806840210840402804D00821BB
:1017200000980840002826D0204600F0FCFB2068E6
:10173000806840210840402819D12068806888438B
:1017400021688860E06E00280DD02548E16E88632E
:10175000E06E00E015E0FEF759FE002810D0E06EC4
:10176000816B88470CE02046FFF746FF08E02046E3
:10177000FFF742FF04E02046FFF73EFF0020E0674E
:1017800066E701200005284000280CD001208005D4
:101790003840002807D00120000521680862204653
:1017A000FFF7E0FE54E78020284000280AD0802080
:1017B0003040002806D0606E002802D02046616EBE
:1017C000884745E740202840002807D04020304087
:1017D000002803D0204600F0B8FB39E700BF37E708
:1017E000651E000810B50446002C01D1012010BD73
:1017F000A069002800D000E000BF606F002805D17C
:10180000002170200155204600F02CF8242060674C
:10181000206800684008400021680860204600F009
:10182000ADFB012800D1E2E7606A002802D0204623
:1018300000F068FA206840680921C90288432168DD
:101840004860206880682A21884321688860206871
:1018500000680121084321680860204600F0CAFAA8
:10186000C5E7000010B586B00446142101A8FEF7B4
:10187000AAFC2949206888424BD12848806B012165
:10188000490408432549886300BF0846006B0121CD
:101890000843224908630846006BC007C00F009048
:1018A00000BF00BF00BF0846C06A012108431B49B2
:1018B000C8620846C06AC007C00F009000BF00BFE2
:1018C000C81301900220029000200390049004208D
:1018D000059001A905200007FEF706FF10481149F1
:1018E00008600420486000210E488160C1608021AA
:1018F0000161002141618161C1610162FEF73CFE2D
:10190000002801D000BFFEE700BF0648E066846201
:1019100000BF06B010BD00000044004000100240AF
:10192000300002409C00002070B504460D4616466B
:10193000A06F202863D1002D01D0002E01D10120FD
:1019400070BD01210903A068884208D120690028E0
:1019500005D1E807C00F002801D00120F0E700BF43
:101960007020005D012801D10220E9E701217020EB
:10197000015500BF6565582006530020E06722200E
:10198000A067E06E002820D01E48E16EC8621E48A5
:10199000E16E08631D48E16E48630020E16E8863D4
:1019A0002368194624313346626DE06EFEF738FE37
:1019B00000280AD01020E06700BF002170200155E8
:1019C00000BF202060670120BAE700BF002170201F
:1019D000015500BF20680068FF21013108432168DC
:1019E00008602068806801210843216888602068B9
:1019F000806840210843216888600020A0E7022019
:101A00009EE70000CF1E0008191F00087D1E000879
:101A100070477047FFB583B004460D461746606FA8
:101A2000202875D1002D01D0002F02D1012007B050
:101A3000F0BD01210903A068884208D1206900286F
:101A400005D1E807C00F002801D00120EFE700BF53
:101A50007020005D012801D10220E8E701217020FB
:101A6000015500BF0020E06721206067FEF72AFFD4
:101A70000190502007535220075301210903A06809
:101A8000884205D12069002802D10026029502E093
:101A90002E460020029021E006980090002280212E
:101AA0002046019B00F034FC002801D00320BEE753
:101AB000002E09D102980088C005C00D21688862F7
:101AC0000298801C029003E0307821688862761CBE
:101AD0005220005B401E81B2522001535220005B15
:101AE0000028D9D106980090002240212046019B71
:101AF00000F00EFC002801D0032098E7202060674A
:101B000000BF00217020015500BF00208FE7FFE7D4
:101B100002208CE70349884202D10121024A117058
:101B2000704700001C0000201000002000BFFEE7EE
:101B300000B587B0142102A8FEF745FB00BF0F488F
:101B4000C06A022108430D49C8620846C06A0221E2
:101B50000840019000BF00BF002208210848FEF79E
:101B6000ABFE082002900120039000200490059015
:101B700002A90348FEF7B8FD07B000BD00100240FF
:101B8000000400507047000010B5002819DA1A4A06
:101B900003071B0F083B9B089B00D2588307DC0EF2
:101BA000FF23A3409A438B071B0E8407E40EA34038
:101BB0001A43114B0407240F083CA408A4001A512F
:101BC00018E00E4A03231B02D21883089B00D25848
:101BD0008307DC0EFF23A3409A438B071B0E840769
:101BE000E40EA3401A43054B032424021B19840866
:101BF000A4001A5110BD00001CED00E000E100E05F
:101C00007047704710B5FEF763FE10BD00B599B080
:101C100034210CA8FEF7D7FA142107A8FEF7D3FA4F
:101C2000182101A8FEF7CFFA1B4800680321C9025A
:101C300088430121C90240181749086010200C9000
:101C400001201290002013900520400314900020E2
:101C500015900CA8FFF74AF9002801D0FEF7A9FB60
:101C60000F2007900020089009900A900B90002107
:101C700007A8FEF7A5FF002801D0FEF79AFB022077
:101C800001900020039001A8FEF794FE002801D0E7
:101C9000FEF78FFB19B000BD0070004015480068CA
:101CA000FF2101310843134908600846C068124902
:101CB00008401049C86008460068104908400D49AE
:101CC0000860084680684008400088600846006850
:101CD000012189048843074908600846C068FD213E
:101CE000090488430349C86000200861C803044907
:101CF00088607047001002400C40FF88F6FFF6FE37
:101D000000ED00E0818CC907C90F002908D00168E7
:101D10004968012252049143826A1143026851606A
:101D20000222416A1140022907D101684968D203A1
:101D30009143C26A1143026851600422416A114012
:101D4000042907D10168496812049143026B1143C9
:101D5000026851600822416A1140082907D10168D0
:101D6000496812039143426B11430268516010228B
:101D7000416A1140102907D1016889681202914314
:101D8000826B1143026891602022416A1140202930
:101D900007D10168896812029143C26B114302683E
:101DA00091604022416A1140402915D1016849687B
:101DB00092039143026C11430268516001221205A3
:101DC000016C914208D10168496803225205914390
:101DD000426C1143026851608022416A114080299F
:101DE00007D10168496812039143826C114302686C
:101DF0005160704738B504460020E067FEF762FD89
:101E00000546206800680821084008280BD11448BE
:101E10002B46002289040090204600F079FA002821
:101E200001D0032038BD2068006804210840042840
:101E30000BD10B482B46002209050090204600F0EC
:101E400067FA002801D00320ECE720206067A06734
:101E500000BF00217020015500BF0020E2E7000014
:101E6000FFFFFF0170B50546AC6A00215A200153FF
:101E7000522001532046FFF7BFFB70BDF8B5054661
:101E8000AC6A666FA76F2068806880210840802850
:101E900007D1212E05D1002152200153204600F008
:101EA00064F82068806840210840402807D1222F2C
:101EB00005D100215A200153204600F034F8E06F8C
:101EC00010210843E0672046FFF796FBF8BD70B588
:101ED0000546AC6A2868006820210840002817D110
:101EE00000215A20015320680068FF2101318843F6
:101EF0002168086020688068400840002168886088
:101F00002068806840218843216888602020A0677D
:101F10002046FFF77DFD70BD70B50446A56A2846D2
:101F2000FFF777FD70BD01680968FF2221329143F8
:101F30000268116001688968490849000268916077
:101F40002021816700210166704710B50446206892
:101F500000684021884321680860202060670020D5
:101F600060662046FFF7D6FD10BD01680968C022F3
:101F7000914302681160202141677047F0B587B036
:101F80000446102004900025002003900026D64926
:101F90002068884200D100E000BF2169A0680843A2
:101FA00061690843E1690843074620680068CF4932
:101FB000084038432168086020684068032109030D
:101FC0008843E168084321684860A769C6492068DA
:101FD000884201D0206A0743206880680B210902EB
:101FE000884338432168886000BFC149206888421F
:101FF0001CD1C048C0680C210840002806D0042825
:102000000AD0082805D00C280CD108E00020049044
:102010000BE00220049008E00420049005E0082072
:10202000049002E01020049000BF25E0AE49206833
:1020300088421FD1AF48C0680321890208400028A8
:1020400008D001218902401A0AD0401A05D0401A4E
:102050000CD108E0002004900BE00220049008E07E
:102060000420049005E00820049002E01020049071
:1020700000BF01E01020049000BF9B492068884207
:1020800056D1049804281AD004DC002807D002286E
:102090001CD108E0082816D0102817D117E0FEF749
:1020A00099FE064616E09348403800681021084023
:1020B0000009002801D0904E00E0904E0AE0FEF7A3
:1020C000ADFE064606E00126F60303E000BF012050
:1020D000039000BF00BF002E0AD060684100401886
:1020E000B04203D860680003B04202D201200390DE
:1020F000F3E0606802903046FF21013100F060F9A2
:102100006268520800238018594101910090029A98
:10211000FEF722F8054603200002854205D37848E1
:10212000854202D82068C560D7E001200390D4E042
:102130000121C903E06988426ED1049804283CD08B
:1021400006DC002809D0012813D002284AD11CE05F
:1021500008283ED0102845D145E0FEF73BFE400060
:1021600061684908401802906168FDF7DFFF85B299
:102170003CE0FEF741FE40006168490840180290CB
:102180006168FDF7D3FF85B230E05A4840380068F7
:10219000102108400009002807D061684A08594BFF
:1021A000D018FDF7C3FF85B206E061684A08564BB8
:1021B000D018FDF7BBFF85B218E0FEF72FFE4000F8
:1021C00061684908401802906168FDF7AFFF85B269
:1021D0000CE061684A0801231B04D018FDF7A6FF34
:1021E00085B203E000BF0120039000BF00BF102DA7
:1021F0000FD3464885420CD844480F3828400590F4
:102200002807400F05990843059005982168C86084
:1022100063E00120039060E0049804283AD006DCD3
:10222000002809D0012812D0022847D11AE0082836
:102230003BD0102842D142E0FEF7CCFD616849084E
:10224000401802906168FDF771FF85B23AE0FEF731
:10225000D3FD61684908401802906168FDF766FF88
:1022600085B22FE02348403800681021084000095B
:10227000002807D061684A081F4BD018FDF756FFA9
:1022800085B206E061684A081C4BD018FDF74EFF86
:1022900085B217E0FEF7C2FD616849084018029058
:1022A0006168FDF743FF85B20CE061684A080123CD
:1022B000DB03D018FDF73AFF85B203E000BF012031
:1022C000039000BF00BF102D05D31048854202D8EF
:1022D0002068C56001E00120039000202066606650
:1022E000039807B0F0BD000000480040F369FFEF1D
:1022F000004400404010024000093D000024F4006A
:10230000FFFF0F0000127A000048E801FFFF000005
:10231000FFB581B004460D4617460A9E22E0701CA8
:1023200000281FD0FEF7CEFA0499401AB04201D817
:10233000002E17D120680068FF21A1318843216851
:10234000086020688068400840002168886020207C
:102350006067A06700BF00217020015500BF032007
:1023600005B0F0BD2068C0692840A84201D1012015
:1023700000E00020B842D2D00020F1E710B50A48B2
:102380000068C069102108400009002808D010200A
:102390000549096808620448FFF7E5F8FDF7CCFF36
:1023A0000148FFF739F910BD1C00002010B5024AA2
:1023B000024900F02CF810BD2D2400081800002060
:1023C000F8B582B28BB2040C0D0C104658430021B4
:1023D00026465E43370C36048019794116466E4313
:1023E000370C36048019794126466E438919F8BDA9
:1023F00002E008C8121F08C1002AFAD170477047CE
:10240000002001E001C1121F002AFBD17047F8B57E
:1024100016460F460446002503E03946B047641CC3
:102420006D1C20780028F8D12846F8BD13B50C465D
:10243000034B012269460348FFF7ECFA00981CBDE4
:10244000FFFF00001C000020FEF74EFAFFF7DEFB46
:10245000FFF76EFBFDF70CFF08E0FDF7F3FE002829
:1024600001D1FDF7F5FE0248FEF728F9F5E7000077
:1024700088130000000000000000000001020304B7
:10248000060708090000000001020304030406080F
:102490000C10182030000000B824000800000020B4
:1024A0001C000000F0230008D42400081C000020B9
:1024B000DC0500000024000800000000040000000B
:1024C00001000000000020000000000000000000EB
:0424D0000000000008
:04000005080000C12E
:00000001FF
