:020000040800F2
:10000000C0060020D5000008E9180008991800086B
:1000100000000000000000000000000000000000E0
:10002000000000000000000000000000331900087C
:100030000000000000000000311900083519000818
:100040000501000805010008050100080501000878
:100050000501000805010008050100080501000868
:100060000000000005010008210700080501000844
:100070000501000805010008000000000501000856
:100080000000000000000000000000000000000070
:100090000501000800000000000000000501000844
:1000A0000000000005010008000000000000000042
:1000B000691E0008050100080000000000000000A3
:1000C0000348854600F0CCF800480047C91E0008E8
:1000D000C00600200C4880F308880C480168090E0F
:1000E0000B4A914205D10B480B4901600B480C4962
:1000F00001600C4880470C480047FEE7FEE7FEE73A
:10010000FEE7FEE7FEE70000C00600200400000056
:100110001F000000341002400100000000000140F8
:1001200000000000AD190008C100000830B50B4602
:10013000014600202022012409E00D46D5409D42C1
:1001400005D31D469540491B254695404019154647
:10015000521E002DF1DC30BDF0B51FB40646002064
:1001600082B005464024019100901BE0019922468F
:100170000F46304600F062F8049A059B801A9941B8
:1001800010D310461946224600F048F8361A8F411F
:100190000197224601200021009F00F03FF8381807
:1001A0004D4100902046641E0028DFDC019B009832
:1001B0002946324607B0F0BDD2B201E00270401CC1
:1001C000491EFBD270470022F6E710B513460A46D7
:1001D00004461946FFF7F0FF204610BD421E537833
:1001E000521C002BFBD10B781370491C521C002BA6
:1001F000F9D17047421C0178401C0029FBD1801ABC
:10020000704730B504460020034600E05B1C934273
:1002100003D2E05CCD5C401BF8D030BD10B5202A85
:1002200004DB0146203A9140002010BD914020237C
:100230009C1A0346E3401943904010BD10B5202A94
:1002400004DB0846203AD040002110BD0B46D340C5
:10025000D0402024A21A91400843194610BD000046
:10026000064C0125064E05E0E36807CC2B430C3C09
:1002700098471034B442F7D3FFF726FFF020000868
:1002800010210008F8B5144C15460E4607460A2200
:100290000721206800F034FA3846FFF7ABFFC1B2FF
:1002A0000A22384600F02CFA0A220221606800F087
:1002B00027FA00F075F900F037FC0446074F00F00C
:1002C00033FC001BA84202D901207875F8BD3878AC
:1002D000B042F4D1F8BD0000041F000894010020D2
:1002E00070B50A4C05460A220721206800F008FA7A
:1002F0002846FFF77FFFC1B20A22284600F000FA25
:100300000A220221606800F0FBF970BD041F00089A
:1003100001B50A220121684600F0F2F908BD00008B
:1003200010B50A220121024800F0EAF910BD0000D0
:10033000141F000810B5FFF746FF10BD08B50F4A9F
:1003400000210091D37E104660384F2B0DD1137FD2
:100350004B2B0AD1D27F022A07D142188123491C94
:100360009B5C89B253700429F7D304226946401C70
:10037000FFF747FF002800D0012008BDF40100204E
:10038000F8B53A4C6069FFF7ABFF7D25ED002846D4
:1003900000F004FBFFF7C4FF284600F0FFFA5520E9
:1003A000FFF7B6FF284600F0F9FA3120FFF7B0FF5B
:1003B000680000F0F3FA2E4E0120307030461730FE
:1003C0000090FFF717FF01460098FFF7FCFEA169B8
:1003D0000098FFF703FF274D00982968FFF7FEFEFE
:1003E000254F02213A460098FFF74CFF0098FFF78F
:1003F00001FF01460098FFF7E6FEE1690098FFF76C
:10040000EDFE69680098FFF7E9FE3A46032100987F
:10041000FFF738FF0098FFF7EDFE01460098FFF761
:10042000D2FE216A0098FFF7D9FEA9680098FFF76D
:10043000D5FE3A4604210098FFF724FF0098FFF705
:10044000D9FE01460098FFF7BEFE616A0098FFF7EB
:10045000C5FE3A4605210098FFF714FF30780528BD
:1004600001D00020F8BD0120F8BD0000041F0008E5
:10047000940100204800002088130000F8B5434D87
:10048000287805287BD1284617300090FFF7B2FE68
:1004900001460098FFF797FE3D4E0098B16AFFF7BE
:1004A0009DFE3C4F0098F968FFF798FE3C46343CAF
:1004B00061680098FFF792FE374A06210098FFF71F
:1004C000E1FE0098FFF796FE01460098FFF77BFEDD
:1004D000F16A0098FFF782FE39690098FFF77EFE07
:1004E000A1680098FFF77AFE2B4A07210098FFF7D2
:1004F000C9FE1DE00098FFF77DFE01460098FFF75A
:1005000062FE316B0098FFF769FE61680098FFF7A3
:1005100065FE79690098FFF761FE1F4A082100987F
:10052000FFF7B0FE2078401CC0B22070032803D033
:1005300028780728DED01CE00321697519E00098AF
:10054000FFF758FE01460098FFF73DFE716B0098DB
:10055000FFF744FEB9690098FFF740FE0F4A0921F2
:100560000098FFF78FFE6078401CC0B260700328CF
:1005700007D028780828E2D02878092804D000205D
:10058000F8BD04206875F7E70120F8BD940100204C
:10059000041F00084800002010270000983A0000BF
:1005A00010B500F0C5F8002801D0012400E00024B7
:1005B000AA21024800F086F8204610BD0F02002054
:1005C00010B50A4808490160E12149024160002153
:1005D0008160C160016181610C21416100F0D4FF43
:1005E000002800D0FEE710BD004400408400002039
:1005F000F8B50020304C0546A07520467B302F4FC3
:100600000226009017E0601901466031CA7E4F2A29
:1006100002D1097F4B2907D005227B30F968FFF70B
:10062000F0FD002803D004E00120A0750BE0A675C2
:1006300066756D1CEDB20098FFF7DCFDA842E2D8AC
:10064000A07D01282CD12078030001F021FC0D228F
:10065000080A0C0E10121416181E202A220002205E
:1006600016E0032014E0042012E0052010E006202C
:100670000EE007200CE008200AE0092008E0FFF760
:100680005DFE002805D00A2002E00B2000E00C20CF
:1006900020700098FFF7AEFD81B20098FFF74AFE88
:1006A000F8BD07480622016B03481730FFF7A9FD84
:1006B0000028E2D0EDE7000094010020041F0008AC
:1006C0001400002010B5064B00225A70054B08227A
:1006D0001B681A620A460146024801F00BF810BD79
:1006E000100000208400002010B50349002048704D
:1006F000024800F060FE10BD1000002084000020C1
:1007000010B5054C0023237013460A4601460348E2
:1007100001F04EF810BD0000100000208400002001
:1007200010B5024800F06AF810BD00000401002076
:1007300001484078704700001000002030B5446C3C
:100740001C252C400125A540046C6560046863608D
:100750008368102B036803D099600068C26030BDC5
:100760009A600068C16030BD30B5014620314A79D9
:100770000023022A04D00422C2630B71012030BD81
:10078000026814680E25AC4314600268146864089B
:1007900064001460446C1C22144001221546006C55
:1007A000A54045604A7118460B7130BD70B50024F4
:1007B000014620314A79022A03D00421C163012471
:1007C00018E0026813680E25AB43136002681368D3
:1007D0005B085B001360436C1C221340012215462A
:1007E0009D40036C5D604A7100220A71816B002993
:1007F00000D08847204670BDC06B7047F0B4016CD4
:100800000D6801680C68466C1C2304221E401746C4
:10081000B7402F420ED067070CD50C68A40602D44F
:100820000C6894430C60416C19408A40016C4A602A
:10083000016B1AE00227B74002462F402032002FFA
:1008400017D0A70715D50C68A40605D40C680A258F
:10085000AC430C6001215171446C02211C40036CBB
:10086000A140596000211171C16A002918D0F0BC63
:1008700008470827B7402F4212D0240710D50C682C
:100880000E25AC430C60446C01211C400B46A34078
:10089000046C6360C163517100211171416BE4E725
:1008A000F0BC704770B504003CD01F482568142187
:1008B0002818FFF73BFC800060641C48206402217C
:1008C000204620300246417129681948E3680140FA
:1008D000A06866691843236933431843A369184322
:1008E000E3691843236A1843084328600121A0687C
:1008F0008903884210D00D488030836A656C1C21C2
:100900000D400F26AE40B3438362656C63680D40B3
:10091000816AAB400B4383620020E0630121517187
:10092000107170BD012070BDF8FFFDBF00000240D6
:100930000F80FFFFF8B504468C4620300179002572
:10094000012909D00126067141790027012905D026
:10095000077102252846F8BD0220F8BD0221417129
:10096000E763206801684908490001606146204644
:10097000FFF7E4FE206B00282068016801D00E22FA
:1009800005E0042291430160206801680A221143B6
:1009900001602068016831430160DBE770B50446FF
:1009A00000F0C2F80546601C02D004480078241804
:1009B00000F0BAF8401BA042FAD370BD000000203E
:1009C000FCB50023012498E027462A469F403A4080
:1009D0006FD04D68012D05D0022D03D0112D01D00F
:1009E000122D16D185680326AC465D00AE46AE409A
:1009F0006546B543AC46CE687546AE4065462E4367
:100A0000866046680D79BE43ED06ED0F9D40354387
:100A10004560C6685F000325BD40AE46AE4335461F
:100A20008E68BE402E43C6604E68022E01D0122E44
:100A300014D1DE08B60036180196366A5D07B44652
:100A4000EE0E0F25B54000966646AE43B4460D69DE
:100A5000009EB54066462E43019D2E62066875468F
:100A6000AE430D79AD07AD0FBD40354305604D6810
:100A7000ED0041D5244D6E6B26436E639E08234DD9
:100A8000B6007519AC46AD689E07360F0F27B74004
:100A9000BD4305273F07B84201D100270BE01C4F9B
:100AA000B84201D1012706E01A4FB84202D102270D
:100AB00001E021E00627B7402F436546AF60164DA1
:100AC0002E684F689643FF0300D516432E606E686C
:100AD0004F689643BF0300D516436E60AE684F68FB
:100AE0009643FF0200D51643AE60EE684F6896430A
:100AF000BF0200D51643EE605B1C0A681546DA405B
:100B000000D061E7FCBD0000001002400000014081
:100B1000000400500008005000040140002A01D0E9
:100B200081617047816270470148806870470000AA
:100B300000000020024881680278891881607047AF
:100B40000000002010B5084800240168402211432D
:100B50000160204600F00AF8002801D0012401E0DD
:100B600000F026F8204610BD0020024070B5044673
:100B70000D4D7D202978C000FFF7D8FA01460B48BB
:100B80000068FFF7D3FA00F0FDFB002809D1042C20
:100B900007D200222146401E00F020F800206C60A1
:100BA00070BD012070BD0000000000200C0000207E
:100BB0000448416B012211434163816B02041143DC
:100BC0008163704700100240C106C90E01208840B1
:100BD000014908607047000000E100E010B500F036
:100BE00085FE10BDF8B5044600784F4D800672D5DD
:100BF0004D4E0027403EB06BC00004D4B06BA90539
:100C00000843B063012749480168C90511D4016848
:100C1000821511430160FFF787FF009005E0FFF7A1
:100C200083FF0099401A642837D840480068C005FF
:100C3000F5D532680321090560680A4001409142F8
:100C400008D08103890F032904D13168890301D5B4
:100C50000120F8BD2A69032109040A4022D0084076
:100C600090421FD0207880061CD528692A698843C5
:100C70000121C9040A432A612A698A432A61286139
:100C8000C0050FD5FFF750FF009008E0FFF74CFFBD
:100C90000099411A2648814201D90320F8BD2869EC
:100CA0008005F3D561688803800F032805D1326879
:100CB0000005824301400A433260286903226168CB
:100CC0001204114008432861002F04D0B16B0120A9
:100CD00000078143B1632078800705D5E8680C21BF
:100CE0008843A1680843E8602078400706D5E86893
:100CF000032189028843E1680843E86020780007FF
:100D000006D5E86803210903884321690843E860A0
:100D10002078000606D5E8680321890488436169C4
:100D20000843E8600020F8BD401002400070004019
:100D300088130000F8B50E4605007DD053480068C2
:100D4000C007C00FB0420AD25048016849084900A4
:100D5000314301600068C007C00FB04271D12878EC
:100D60004B4C800705D5E068F0218843A96808430B
:100D7000E0602878C00752D06868022817D003289E
:100D800018D02168012818D08905002959DAE168AE
:100D9000890889000143E160FFF7C6FE69680746DC
:100DA000022912D003291CD0012926D033E0216862
:100DB0008903EAE721688901E7E74907E5E7FFF7E3
:100DC000B3FEC11B3348814223D8E0680007800F7F
:100DD0000228F4D123E0FFF7A7FEC11B2D48814272
:100DE00017D8E0680007800F0328F4D117E0FFF759
:100DF0009BFEC11B274881420BD8E0680007800F8B
:100E00000128F4D10BE0FFF78FFEC11B214881427E
:100E100001D90320F8BDE0680007800FF3D11B481B
:100E20000168C907C90FB1420DD9016849084900D5
:100E300031430160006800E003E0C007C00FB0422A
:100E400001D00120F8BD2878400706D5E0680721C9
:100E500009028843E9680843E0602878000707D55D
:100E6000E0680721C90288432969C9000843E06096
:100E700000F036F8E168084A0906090F515CC840DD
:100E8000064908600020FFF771FEF8BD002002400F
:100E90000010024088130000E21E00080C00002031
:100EA000044805490068C968044A4905490F515C6E
:100EB000C84070470C00002000100240FB1E0008D4
:100EC000044805490068C968044A8904490F515C0F
:100ED000C84070470C00002000100240FB1E0008B4
:100EE00010B5184AD1680C20084004280BD00828F7
:100EF00010D00C2810D050680004410F0120C0030E
:100F0000491C884010BD1068C00601D50E4810BDB0
:100F10000E4810BD0E4810BD88020E4B000F185C25
:100F20000902D368890F491CDB0301D5084A05E093
:100F30001268D20601D5044A00E0044A5043FFF784
:100F4000F5F810BD0010024000093D000024F40037
:100F500000127A00F21E0008FEB505007ED0FE4C9D
:100F6000E7680C20E6680740012000040640287866
:100F7000C00747D0082F05D00C2F0AD1012000044C
:100F8000864206D1206880033CD568680028E5D0F9
:100F900038E0012069680004814203D121680143DF
:100FA000216011E0052301221B049204994221686B
:100FB00002D111432160F1E78143216021680140A2
:100FC0000091206890432060686800280DD0FFF7EA
:100FD000ABFD009005E0FFF7A7FD0099401A6428DB
:100FE0007ED820688003F6D50CE0FFF79DFD0090C9
:100FF00005E0FFF799FD0099401A6428F0D82068B1
:101000008003F6D4287880075CD5E868810604D58B
:10101000226820210A43226088430923042F0DD02F
:101020000C2F01D1002E09D000283BD02168994314
:1010300001432160FFF778FD064627E02168490754
:1010400001D500288AD061681F22120291432A69C3
:101050001202114361602168994300E08EE101436F
:101060002160FFF73DFFE16809060A0FBB49895C73
:10107000C840BB4908600020FFF778FD002873D105
:1010800020E0FFF751FD801B0228A9D82068400707
:10109000F7D560681F2109028843296909020843BE
:1010A00060600FE02068400840002060FFF73CFDD2
:1010B000064604E0FFF738FD801B022890D8206820
:1010C0004007F7D42878C00660D5002F0DD0A86956
:1010D00000284AD02068FF2101310843206000E049
:1010E000C4E0FFF721FD06462CE02068800502D50C
:1010F000A8690028A6D06068072149038843296AA7
:10110000084360606068297F0002000A09060843FE
:101110006060286A410B0120C003491C8840E168D7
:1011200009060A0F8D49895CC8408D490860002076
:10113000FFF71CFD002817D128E0FFF7F5FC801B06
:101140000228A2D820688005F7D5606807214903E6
:101150008843296A084360606068297F0002000AAA
:1011600009060843606011E0E1E02168FF200130DA
:1011700081432160FFF7D8FC064604E0FFF7D4FC6A
:10118000801B022872D820688005F7D42878754E15
:10119000000724D568690028306910D00121084370
:1011A0003061FFF7C1FC009005E0FFF7BDFC00993E
:1011B000401A02285AD830698007F6D50FE0400857
:1011C00040003061FFF7B0FC009005E0FFF7ACFC99
:1011D0000099401A022849D830698007F6D4287847
:1011E000400765D500200290A06BC00006D4A06B1C
:1011F000012109070843A063012002905A480168B1
:10120000C90511D40168821511430160FFF78CFCF8
:10121000009005E0FFF788FC0099401A642825D863
:1012200051480068C005F5D5FF20AA680130824208
:1012300003D131690143316111E001218902002AA2
:1012400007D005231B029A4203D132690A43326157
:10125000EFE7326982433261306988433061A868C0
:1012600000280FD0FFF760FC009007E05EE0FFF77A
:101270005BFC0099411A3D48814257D8306980058E
:10128000F5D50DE0FFF750FC009006E0FFF74CFCB1
:101290000099411A3548814248D830698005F5D413
:1012A0000298002804D0A16B012000078143A163AC
:1012B000686A002864D00C2F3ED00126360602282A
:1012C000206805D0B0432060FFF72EFC05462FE0D4
:1012D000B0432060FFF728FC074604E0FFF724FC3A
:1012E000C01B022822D820688001F7D4E96AA86AC6
:1012F000E2680843296BFD231B049A43114308430A
:10130000E060206830432060FFF70EFC054604E0F3
:10131000FFF70AFC401B022808D820688001F7D597
:101320002EE0FFF701FC401B022801D90320FEBD7F
:1013300020688001F5D423E00128F8D0E06801217D
:101340000904AA6A0140914218D10F218904EA6A6E
:101350000140914212D10BE000100240E21E000851
:101360000C00002040100240007000408813000074
:10137000032189050840296B884201D00120FEBD68
:101380000020FEBD094910B5401E884201D9012048
:1013900010BD074C60610321081F00F0A7FA002070
:1013A000A06107202061002010BD0000FFFFFF00AA
:1013B00000E000E0704770B5416F0446856F00683B
:1013C000826810261206002A14DA212912D18168B7
:1013D000802291438160A06E002808D0FFF7C4F9F5
:1013E000002804D0A06EFFF707FA20281DD0204661
:1013F00000F0FEFB20688168490614D5222D12D129
:101400008168402291438160E06E002808D0FFF798
:10141000ABF9002804D0E06EFFF7EEF9202804D0E5
:10142000204600F0D5FB002070BDE667032070BDAC
:10143000054A0168914206D1C16F082902D0C06FE8
:10144000102800D100BF704700440040F8B5026882
:101450000446D0691168936805072D0F5BD0DD073E
:10146000ED0FFF2621360E402E4367D0C60706D06B
:10147000CE0504D501261662E26F3243E267870784
:1014800002220426002F06DADF0704D027683A621A
:10149000E76F3743E767470706D5DB0704D02368C4
:1014A0001E62E36F1343E367020709D520220A4057
:1014B0002A4305D0236808221A62E36F1343E367C7
:1014C000E26F002A2FD0800606D5880604D5216E4B
:1014D000002901D020468847E06F216889684906C5
:1014E00001D4000724D5204600F072FB20688168F3
:1014F000490619D58168402291438160E06E002839
:1015000012D020498163E06EFFF750F900280AD01D
:10151000E06E816B06E0850610D58D060ED5216E36
:101520001CE020468847F8BD2046FFF781FFF8BD44
:101530002046FFF77DFF0020E067F8BDC50208D513
:101540005B0206D50120000510622046FFF732FF3E
:10155000F8BD030605D50B0603D5616E0029E0D161
:10156000F8BD4006FCD54806FAD513682046402150
:101570008B431360202161670021616600F080F9D0
:10158000F8BD00002D1B000810B5040003D0606FEB
:10159000002802D007E0012010BD00217020015575
:1015A000204600F027F82420606720680168490879
:1015B00049000160204600F023FB0128ECD0606A5E
:1015C000002802D0204600F01BFA2068416809225A
:1015D000D20291434160206881682A229143816050
:1015E00020680168012211430160204600F06EFA74
:1015F00010BD0000F0B587B0064614216846FEF71E
:10160000E2FD36483168814266D13548816B01225E
:10161000520411438163C26A01210A43C262C26A51
:101620000A400592026B0A430263006B00240840E3
:1016300005902C4800900220019004270520029478
:101640006946049703940007FFF7BAF9274D264827
:10165000AC60EC6081C5EC602C6180276C61AF6090
:10166000AC612248083DFFF71DF9002800D0FEE7D5
:10167000F566AE621E4D1C4829463C3828600420A1
:1016800068601020083191C16C61AC61EC61284642
:101690002C62FFF707F9002800D0FEE7B5660022AC
:1016A00011460A20AE62FFF799FA0A20FFF78CFA7A
:1016B000002202211C20FFF791FA1C20FFF784FA78
:1016C00006484168052252061143416030680168AE
:1016D000012292031143016007B0F0BD00440040B5
:1016E0000010024004800000580002400401002065
:1016F0004C010020F8B50446806F20284DD1002908
:101700000BD0002A09D00123A0681B03984206D100
:101710002069002803D1C80701D00120F8BD254663
:101720006035287C012838D0012028745820616554
:1017300002530026E6672220A067E06E002819D039
:101740001749C162E16E17480863E16E16484863A5
:10175000E06E13468663676D21683A462431E06E79
:10176000FFF7E8F8002805D01020E0672E7420204D
:101770006067D2E72E7420680168FF2201321143AE
:1017800001602068816801221143816020688168BE
:101790004022114381600020F8BD0220F8BD000006
:1017A000891B0008C71B0008411B000870477047D1
:1017B000FFB50446406F83B017460D4620285CD124
:1017C000002D0AD0002F08D0A168C001814207D1A6
:1017D0002069002804D1E80702D0012007B0F0BD3D
:1017E000204660300290007C012846D002980121FA
:1017F00001740020E06721206067FFF795F9264615
:1018000040360190378277820120A168000381422F
:1018100002D12069002802D02F46002511E00027C0
:101820000FE000228021204600F0ECFA002815D1BC
:10183000002F15D02168387888627F1C708A401E7E
:101840007082708A019B002806980090E9D10022DE
:101850004021204600F0D6FA002808D00320BDE73A
:1018600028882168C005C00D8862AD1CE6E72020ED
:101870006067029900200874B0E70220AEE700001C
:101880000349884202D103490120087070470000D3
:101890008400002010000020FEE7000010B586B094
:1018A00014216846FEF78FFC0D48C26A02210A43E4
:1018B000C262C06A0B4C08400590002208212046F5
:1018C000FFF72CF9082000900021012002910391DC
:1018D000019069462046FFF773F806B010BD00007E
:1018E0000010024000040050704700008307FF22F0
:1018F000DB0E9A408907090E994000280BDA000791
:10190000000F0838830808489B001818C3699343E0
:101910000B43C3617047830804489B001B18186879
:10192000904308431860704700ED00E000E400E0D9
:101930007047704710B5FFF7FDF810BD10B598B0AF
:1019400034216846FEF73FFC14210DA8FEF73BFC4E
:10195000182112A8FEF737FC134801680322D202AF
:101960009143C21489180160102000900120069054
:101970000520002440030890079409946846FFF767
:10198000EBFA0F200D900E940F94109400211194F7
:101990000DA8FFF7CFF902201290149412A8FFF7B8
:1019A00021F918B010BD0000007000401048016817
:1019B000821511430160C1680E4A1140C16001687F
:1019C0000D4A114001608168490849008160016841
:1019D0000122920491430160C168FD2212049143E7
:1019E000C160002101610549C003886070470000A3
:1019F000001002400C40FF88F6FFF6FE00ED00E00C
:101A000010B5818CC90707D001684A6801235B04BF
:101A10009A43836A1A434A60818C890707D5016813
:101A20004A6801231B049A43C36A1A434A60818CA3
:101A3000490707D501684A6801239B049A43036B51
:101A40001A434A60818C090707D501684A68012357
:101A5000DB039A43436B1A434A60818CC90607D55E
:101A60000268916801231B039943836B19439160BA
:101A7000818C890607D501688A6801235B039A4334
:101A8000C36B1A438A60818C490612D503685A6871
:101A900001210905046C8A4322435A60026C8A4280
:101AA00007D10268516803235B059943436C1943CE
:101AB0005160818C090607D501684A680123DB045F
:101AC000806C9A4302434A6010BD0000F8B50026BE
:101AD0000446C667FFF728F8054620680068124FDD
:101AE000000709D501212B46002249052046009711
:101AF00000F088F900280DD12068006840070BD558
:101B000001212B46002289052046009700F07AF932
:101B1000002801D00320F8BD20206067A067603452
:101B200026740020F8BD0000FFFFFF0110B5806A99
:101B30000022014640314A834A82FFF779FC10BDFA
:101B400070B5846A606FA56F2168896800260906F0
:101B5000002906DA212804D152200653204600F03D
:101B600047F820688068400606D5222D04D15A2007
:101B70000653204600F02CF8E06F10210843E06780
:101B80002046FFF755FC70BD10B501460968806A14
:101B90000968890614D400225A210A5201680A6889
:101BA000FF2301339A430A6001688A685208520091
:101BB0008A6001688A6840239A438A60202181678D
:101BC000FFF7F4FD10BD10B5806AFFF7F0FD10BD02
:101BD00001680A68FF2321339A430A6001688A6812
:101BE000520852008A6020218167002101667047F7
:101BF00001680A68C0239A430A6020214167704740
:101C0000F8B504462669A268E76932436669102080
:101C100000253E432368324370491E68704F3E40A2
:101C200016431E602268536803263603B343E668F2
:101C3000334353602368A2698B4201D0266A324342
:101C40009E680B273F02BE4316439E60654E236885
:101C5000654AB3420AD1D2680C26324026D0042A03
:101C600028D0082A24D00C2A10D10EE08B420DD1A6
:101C7000D66803229202164018D001229202B61AA8
:101C800018D0B61A14D0964200D10820564A012620
:101C9000403A564FF6038B4236D100280CD002282A
:101CA0000DD0042812D008281FD11CE00020EDE739
:101CB0000220EBE70420E9E7FFF7F2F808E01068FC
:101CC000C00601D5384605E0494803E0FFF708F9AA
:101CD000002873D0626851005118814205D8110361
:101CE000814202D303E03046F4E7012566E0010EAD
:101CF00006025008002330185941FEF72DFA03213F
:101D00000902411A3B4A55E0E169B14232D1030070
:101D100000F0BEF809070A0D06250606062B060088
:101D2000E3E7FFF7BDF81CE0FFF7CAF819E0106819
:101D30006168C00602D548082F4A01E02F4A4808CA
:101D40008018FEF7F3F980B201462D4A103991420E
:101D5000CBD8511C01400007400F08432CE0FFF78F
:101D6000BFF8616840004A08EAE761680122480854
:101D70001204E5E7030000F08BF809070A0D0626B8
:101D80000606062C0600B0E7FFF78AF81DE0FFF70D
:101D900097F81AE010686168C00602D54808C019B3
:101DA00002E013484A081018FEF7C0F980B2014655
:101DB000134A1039914298D82168C86000202066E3
:101DC00060662846F8BDFFF78BF861684A088018FE
:101DD000EAE7616848088019E6E70000004800402B
:101DE000F369FFEF004400404010024000093D004D
:101DF0000024F400FFFC0F0000127A000048E80104
:101E0000EFFF0000FFB581B017460E4604460A9D5D
:101E100009E0681C07D0FEF787FE0499401AA84223
:101E20000CD8002D0AD02068C1693046884318D0EC
:101E30000020B842EDD0002005B0F0BD2068016858
:101E4000FF22A1329143016020688168490849005E
:101E5000816020206067A067002060342074032028
:101E6000EAE70120E5E7000010B5084C2068C069EA
:101E7000800307D5FEF738FCFEF7BAFB0120216886
:101E8000400408620148FFF7E1FA10BD8400002019
:101E900030B47446641E2578641CAB4200D21D46E3
:101EA000635D5B00E31830BC184702E008C8121FEE
:101EB00008C1002AFAD170477047002001E001C133
:101EC000121F002AFBD17047FEF73CFEFFF736FDDC
:101ED000FFF7E4FCFEF774FBFEF752FAFEF7CEFACA
:101EE000FEE70000000000000000010203040607F6
:101EF0000809030406080C10182030000000000137
:101F00000203040084200008441F00087820000811
:101F10007C2000081C553100E0200008202000082B
:101F20002C20000818200008E8200008482000089D
:101F300040200008502000083820000858200008E1
:101F4000602000080D0A0000322C312C312C302C7E
:101F5000302C302C302C302C00000000302C0000B5
:101F6000312C0000332C0000312C342C00000000F8
:101F7000342C0000312C302C302C30002C302C3202
:101F80002C322C322C313030302C302C30000000F0
:101F90003830000030000000302C32302C32313428
:101FA000373535303539362C3231343734383336ED
:101FB00034382C333637303039302C302C33323201
:101FC000313335363631362C302C302C3100000090
:101FD0002C310000310000003535303300000000A6
:101FE0003838383300000000340000003039313216
:101FF00033343536373800006D7174743D38000065
:1020000038000000302C312C302C302C312C34395D
:10201000000000003900000062616E643D000000B5
:102020006F7065726D6F64653D0000006665617478
:102030005F6672616D653D006970636F6E663D003D
:1020400070736B3D000000007363616E3D00000023
:102050006A6F696E3D000000646E736765743D00D1
:102060006D7174743D0000004E4543435549556100
:10207000415A4443000000004F4B00004552524F6C
:102080005200000061742B7273695F006D794C6FB0
:102090006164000070617373776F72640000000008
:1020A000757365726E616D65000000006176397050
:1020B0006E356F3534637436772D6174732E696FA6
:1020C000742E61702D6E6F727468656173742D313A
:1020D0002E616D617A6F6E6177732E636F6D000094
:1020E0007265736574000000696E69740000000019
:1020F000102100080000002084000000AA1E000833
:1021000094210008840000203C060000BA1E00084C
:10211000010000000400000000000000000020009A
:1021200000000000000000008C200008EC1F0008E8
:10213000AC200008E01F000868200008A02000086C
:1021400094200008D81F0008901F0008D41F000822
:10215000D41F0008F81F0008981F0008042000087A
:10216000941F00085C1F0008601F00087C1F000807
:10217000741F0008D01F0008681F0008481F0008CF
:10218000641F0008701F0008E81F000800200008F6
:04219000142000080F
:04000005080000C12E
:00000001FF
